{
  "address": "0x907E0598C2C44f68D1c57BC725F5D98232B07D02",
  "abi": [
    {
      "anonymous": false,
      "inputs": [
        {
          "indexed": true,
          "internalType": "uint256",
          "name": "questionId",
          "type": "uint256"
        },
        {
          "indexed": true,
          "internalType": "uint256",
          "name": "answerId",
          "type": "uint256"
        },
        {
          "indexed": false,
          "internalType": "uint256",
          "name": "timestamp",
          "type": "uint256"
        }
      ],
      "name": "AnswerPosted",
      "type": "event"
    },
    {
      "anonymous": false,
      "inputs": [
        {
          "indexed": true,
          "internalType": "uint256",
          "name": "contentId",
          "type": "uint256"
        },
        {
          "indexed": false,
          "internalType": "bool",
          "name": "isQuestion",
          "type": "bool"
        },
        {
          "indexed": false,
          "internalType": "bool",
          "name": "isVisible",
          "type": "bool"
        }
      ],
      "name": "ContentModerated",
      "type": "event"
    },
    {
      "anonymous": false,
      "inputs": [
        {
          "indexed": true,
          "internalType": "uint256",
          "name": "questionId",
          "type": "uint256"
        },
        {
          "indexed": false,
          "internalType": "uint256",
          "name": "timestamp",
          "type": "uint256"
        }
      ],
      "name": "QuestionPosted",
      "type": "event"
    },
    {
      "anonymous": false,
      "inputs": [
        {
          "indexed": true,
          "internalType": "uint256",
          "name": "targetId",
          "type": "uint256"
        },
        {
          "indexed": false,
          "internalType": "bool",
          "name": "isQuestion",
          "type": "bool"
        },
        {
          "indexed": false,
          "internalType": "uint256",
          "name": "timestamp",
          "type": "uint256"
        }
      ],
      "name": "VoteCast",
      "type": "event"
    },
    {
      "inputs": [],
      "name": "answerCounter",
      "outputs": [
        {
          "internalType": "uint256",
          "name": "",
          "type": "uint256"
        }
      ],
      "stateMutability": "view",
      "type": "function"
    },
    {
      "inputs": [
        {
          "internalType": "uint256",
          "name": "",
          "type": "uint256"
        },
        {
          "internalType": "address",
          "name": "",
          "type": "address"
        }
      ],
      "name": "answerVotes",
      "outputs": [
        {
          "internalType": "ebool",
          "name": "hasVoted",
          "type": "bytes32"
        },
        {
          "internalType": "ebool",
          "name": "voteType",
          "type": "bytes32"
        },
        {
          "internalType": "euint32",
          "name": "encryptedVoteWeight",
          "type": "bytes32"
        }
      ],
      "stateMutability": "view",
      "type": "function"
    },
    {
      "inputs": [
        {
          "internalType": "uint256",
          "name": "",
          "type": "uint256"
        }
      ],
      "name": "answers",
      "outputs": [
        {
          "internalType": "euint128",
          "name": "encryptedContent",
          "type": "bytes32"
        },
        {
          "internalType": "eaddress",
          "name": "encryptedAnswerer",
          "type": "bytes32"
        },
        {
          "internalType": "uint256",
          "name": "timestamp",
          "type": "uint256"
        },
        {
          "internalType": "uint256",
          "name": "questionId",
          "type": "uint256"
        },
        {
          "internalType": "uint256",
          "name": "answerId",
          "type": "uint256"
        },
        {
          "internalType": "euint32",
          "name": "encryptedUpvotes",
          "type": "bytes32"
        },
        {
          "internalType": "euint32",
          "name": "encryptedDownvotes",
          "type": "bytes32"
        },
        {
          "internalType": "euint32",
          "name": "encryptedScore",
          "type": "bytes32"
        },
        {
          "internalType": "ebool",
          "name": "isVisible",
          "type": "bytes32"
        },
        {
          "internalType": "euint32",
          "name": "encryptedRandomRank",
          "type": "bytes32"
        }
      ],
      "stateMutability": "view",
      "type": "function"
    },
    {
      "inputs": [
        {
          "internalType": "uint256",
          "name": "targetId",
          "type": "uint256"
        },
        {
          "internalType": "bool",
          "name": "isQuestion",
          "type": "bool"
        },
        {
          "internalType": "externalEuint32",
          "name": "encryptedVoteType",
          "type": "bytes32"
        },
        {
          "internalType": "bytes",
          "name": "voteTypeProof",
          "type": "bytes"
        },
        {
          "internalType": "externalEuint32",
          "name": "encryptedWeight",
          "type": "bytes32"
        },
        {
          "internalType": "bytes",
          "name": "weightProof",
          "type": "bytes"
        }
      ],
      "name": "castVote",
      "outputs": [],
      "stateMutability": "nonpayable",
      "type": "function"
    },
    {
      "inputs": [],
      "name": "encryptedActiveUsers",
      "outputs": [
        {
          "internalType": "euint32",
          "name": "",
          "type": "bytes32"
        }
      ],
      "stateMutability": "view",
      "type": "function"
    },
    {
      "inputs": [],
      "name": "encryptedTotalAnswers",
      "outputs": [
        {
          "internalType": "euint32",
          "name": "",
          "type": "bytes32"
        }
      ],
      "stateMutability": "view",
      "type": "function"
    },
    {
      "inputs": [],
      "name": "encryptedTotalQuestions",
      "outputs": [
        {
          "internalType": "euint32",
          "name": "",
          "type": "bytes32"
        }
      ],
      "stateMutability": "view",
      "type": "function"
    },
    {
      "inputs": [],
      "name": "encryptedTotalVotes",
      "outputs": [
        {
          "internalType": "euint32",
          "name": "",
          "type": "bytes32"
        }
      ],
      "stateMutability": "view",
      "type": "function"
    },
    {
      "inputs": [
        {
          "internalType": "uint256",
          "name": "answerId",
          "type": "uint256"
        }
      ],
      "name": "getAnswer",
      "outputs": [
        {
          "components": [
            {
              "internalType": "euint128",
              "name": "encryptedContent",
              "type": "bytes32"
            },
            {
              "internalType": "eaddress",
              "name": "encryptedAnswerer",
              "type": "bytes32"
            },
            {
              "internalType": "uint256",
              "name": "timestamp",
              "type": "uint256"
            },
            {
              "internalType": "uint256",
              "name": "questionId",
              "type": "uint256"
            },
            {
              "internalType": "uint256",
              "name": "answerId",
              "type": "uint256"
            },
            {
              "internalType": "euint32",
              "name": "encryptedUpvotes",
              "type": "bytes32"
            },
            {
              "internalType": "euint32",
              "name": "encryptedDownvotes",
              "type": "bytes32"
            },
            {
              "internalType": "euint32",
              "name": "encryptedScore",
              "type": "bytes32"
            },
            {
              "internalType": "ebool",
              "name": "isVisible",
              "type": "bytes32"
            },
            {
              "internalType": "euint32",
              "name": "encryptedRandomRank",
              "type": "bytes32"
            }
          ],
          "internalType": "struct AnonScholar.Answer",
          "name": "",
          "type": "tuple"
        }
      ],
      "stateMutability": "view",
      "type": "function"
    },
    {
      "inputs": [],
      "name": "getCounters",
      "outputs": [
        {
          "internalType": "uint256",
          "name": "currentQuestionCounter",
          "type": "uint256"
        },
        {
          "internalType": "uint256",
          "name": "currentAnswerCounter",
          "type": "uint256"
        }
      ],
      "stateMutability": "view",
      "type": "function"
    },
    {
      "inputs": [],
      "name": "getPlatformStats",
      "outputs": [
        {
          "internalType": "euint32",
          "name": "totalQuestions",
          "type": "bytes32"
        },
        {
          "internalType": "euint32",
          "name": "totalAnswers",
          "type": "bytes32"
        },
        {
          "internalType": "euint32",
          "name": "totalVotes",
          "type": "bytes32"
        }
      ],
      "stateMutability": "view",
      "type": "function"
    },
    {
      "inputs": [
        {
          "internalType": "uint256",
          "name": "questionId",
          "type": "uint256"
        }
      ],
      "name": "getQuestion",
      "outputs": [
        {
          "components": [
            {
              "internalType": "euint128",
              "name": "encryptedContent",
              "type": "bytes32"
            },
            {
              "internalType": "eaddress",
              "name": "encryptedAsker",
              "type": "bytes32"
            },
            {
              "internalType": "uint256",
              "name": "timestamp",
              "type": "uint256"
            },
            {
              "internalType": "euint32",
              "name": "encryptedViewCount",
              "type": "bytes32"
            },
            {
              "internalType": "euint32",
              "name": "encryptedAnswerCount",
              "type": "bytes32"
            },
            {
              "internalType": "ebool",
              "name": "isActive",
              "type": "bytes32"
            },
            {
              "internalType": "uint256",
              "name": "questionId",
              "type": "uint256"
            },
            {
              "internalType": "euint32",
              "name": "encryptedRandomSeed",
              "type": "bytes32"
            }
          ],
          "internalType": "struct AnonScholar.Question",
          "name": "",
          "type": "tuple"
        }
      ],
      "stateMutability": "view",
      "type": "function"
    },
    {
      "inputs": [
        {
          "internalType": "uint256",
          "name": "questionId",
          "type": "uint256"
        }
      ],
      "name": "getQuestionAnswers",
      "outputs": [
        {
          "internalType": "uint256[]",
          "name": "",
          "type": "uint256[]"
        }
      ],
      "stateMutability": "view",
      "type": "function"
    },
    {
      "inputs": [
        {
          "internalType": "uint256",
          "name": "count",
          "type": "uint256"
        }
      ],
      "name": "getRecentQuestions",
      "outputs": [
        {
          "internalType": "uint256[]",
          "name": "",
          "type": "uint256[]"
        }
      ],
      "stateMutability": "view",
      "type": "function"
    },
    {
      "inputs": [
        {
          "internalType": "address",
          "name": "user",
          "type": "address"
        }
      ],
      "name": "getUserAnswers",
      "outputs": [
        {
          "internalType": "uint256[]",
          "name": "",
          "type": "uint256[]"
        }
      ],
      "stateMutability": "view",
      "type": "function"
    },
    {
      "inputs": [
        {
          "internalType": "address",
          "name": "user",
          "type": "address"
        }
      ],
      "name": "getUserQuestions",
      "outputs": [
        {
          "internalType": "uint256[]",
          "name": "",
          "type": "uint256[]"
        }
      ],
      "stateMutability": "view",
      "type": "function"
    },
    {
      "inputs": [
        {
          "internalType": "uint256",
          "name": "targetId",
          "type": "uint256"
        },
        {
          "internalType": "bool",
          "name": "isQuestion",
          "type": "bool"
        },
        {
          "internalType": "address",
          "name": "user",
          "type": "address"
        }
      ],
      "name": "hasUserVoted",
      "outputs": [
        {
          "internalType": "ebool",
          "name": "",
          "type": "bytes32"
        }
      ],
      "stateMutability": "view",
      "type": "function"
    },
    {
      "inputs": [
        {
          "internalType": "uint256",
          "name": "questionId",
          "type": "uint256"
        }
      ],
      "name": "incrementViewCount",
      "outputs": [],
      "stateMutability": "nonpayable",
      "type": "function"
    },
    {
      "inputs": [
        {
          "internalType": "uint256",
          "name": "questionId",
          "type": "uint256"
        },
        {
          "internalType": "externalEuint128",
          "name": "encryptedContent",
          "type": "bytes32"
        },
        {
          "internalType": "bytes",
          "name": "contentProof",
          "type": "bytes"
        },
        {
          "internalType": "externalEaddress",
          "name": "encryptedAnswerer",
          "type": "bytes32"
        },
        {
          "internalType": "bytes",
          "name": "answererProof",
          "type": "bytes"
        }
      ],
      "name": "postAnswer",
      "outputs": [],
      "stateMutability": "nonpayable",
      "type": "function"
    },
    {
      "inputs": [
        {
          "internalType": "externalEuint128",
          "name": "encryptedContent",
          "type": "bytes32"
        },
        {
          "internalType": "bytes",
          "name": "contentProof",
          "type": "bytes"
        },
        {
          "internalType": "externalEaddress",
          "name": "encryptedAsker",
          "type": "bytes32"
        },
        {
          "internalType": "bytes",
          "name": "askerProof",
          "type": "bytes"
        }
      ],
      "name": "postQuestion",
      "outputs": [],
      "stateMutability": "nonpayable",
      "type": "function"
    },
    {
      "inputs": [],
      "name": "protocolId",
      "outputs": [
        {
          "internalType": "uint256",
          "name": "",
          "type": "uint256"
        }
      ],
      "stateMutability": "pure",
      "type": "function"
    },
    {
      "inputs": [
        {
          "internalType": "uint256",
          "name": "",
          "type": "uint256"
        },
        {
          "internalType": "uint256",
          "name": "",
          "type": "uint256"
        }
      ],
      "name": "questionAnswerIds",
      "outputs": [
        {
          "internalType": "uint256",
          "name": "",
          "type": "uint256"
        }
      ],
      "stateMutability": "view",
      "type": "function"
    },
    {
      "inputs": [],
      "name": "questionCounter",
      "outputs": [
        {
          "internalType": "uint256",
          "name": "",
          "type": "uint256"
        }
      ],
      "stateMutability": "view",
      "type": "function"
    },
    {
      "inputs": [
        {
          "internalType": "uint256",
          "name": "",
          "type": "uint256"
        },
        {
          "internalType": "address",
          "name": "",
          "type": "address"
        }
      ],
      "name": "questionVotes",
      "outputs": [
        {
          "internalType": "ebool",
          "name": "hasVoted",
          "type": "bytes32"
        },
        {
          "internalType": "ebool",
          "name": "voteType",
          "type": "bytes32"
        },
        {
          "internalType": "euint32",
          "name": "encryptedVoteWeight",
          "type": "bytes32"
        }
      ],
      "stateMutability": "view",
      "type": "function"
    },
    {
      "inputs": [
        {
          "internalType": "uint256",
          "name": "",
          "type": "uint256"
        }
      ],
      "name": "questions",
      "outputs": [
        {
          "internalType": "euint128",
          "name": "encryptedContent",
          "type": "bytes32"
        },
        {
          "internalType": "eaddress",
          "name": "encryptedAsker",
          "type": "bytes32"
        },
        {
          "internalType": "uint256",
          "name": "timestamp",
          "type": "uint256"
        },
        {
          "internalType": "euint32",
          "name": "encryptedViewCount",
          "type": "bytes32"
        },
        {
          "internalType": "euint32",
          "name": "encryptedAnswerCount",
          "type": "bytes32"
        },
        {
          "internalType": "ebool",
          "name": "isActive",
          "type": "bytes32"
        },
        {
          "internalType": "uint256",
          "name": "questionId",
          "type": "uint256"
        },
        {
          "internalType": "euint32",
          "name": "encryptedRandomSeed",
          "type": "bytes32"
        }
      ],
      "stateMutability": "view",
      "type": "function"
    },
    {
      "inputs": [
        {
          "internalType": "address",
          "name": "",
          "type": "address"
        },
        {
          "internalType": "uint256",
          "name": "",
          "type": "uint256"
        }
      ],
      "name": "userAnswerIds",
      "outputs": [
        {
          "internalType": "uint256",
          "name": "",
          "type": "uint256"
        }
      ],
      "stateMutability": "view",
      "type": "function"
    },
    {
      "inputs": [
        {
          "internalType": "address",
          "name": "",
          "type": "address"
        },
        {
          "internalType": "uint256",
          "name": "",
          "type": "uint256"
        }
      ],
      "name": "userQuestionIds",
      "outputs": [
        {
          "internalType": "uint256",
          "name": "",
          "type": "uint256"
        }
      ],
      "stateMutability": "view",
      "type": "function"
    }
  ],
  "transactionHash": "0xbbeade7924d556a313ee9c0eb4c2281a41d47f847f91292fa8f5dd0d968dad9b",
  "args": [],
  "numDeployments": 1,
  "solcInputHash": "289426f0a05647986324071eb19cf488",
  "bytecode": "0x608060405234801561000f575f5ffd5b5061018a6100ae604080516080810182525f808252602082018190529181018290526060810191909152506040805160808101825273687820221192c5b662b25367f70076a37bc79b6c815273848b0066793bcc60346da1f49049357399b8d595602082015273a02cda4ca3a71d7c46997716f4283aa851c2881291810191909152731364cbbf2cdf5032c47d8226a6f6fbd2afcdacac606082015290565b80517f9e7b61f58c47dc699ac88507c4f5bb9f121c03808c5676a8078fe583e464970080546001600160a01b03199081166001600160a01b039384161790915560208301517f9e7b61f58c47dc699ac88507c4f5bb9f121c03808c5676a8078fe583e46497018054831691841691909117905560408301517f9e7b61f58c47dc699ac88507c4f5bb9f121c03808c5676a8078fe583e46497028054831691841691909117905560608301517f9e7b61f58c47dc699ac88507c4f5bb9f121c03808c5676a8078fe583e46497038054909216921691909117905550565b611ef4806101975f395ff3fe608060405234801561000f575f5ffd5b50600436106101b0575f3560e01c80635898852c116100f3578063b7b064a811610093578063db88176f1161006e578063db88176f14610547578063f0ddf9ff146105ba578063f277bc3e146105c3578063f5987464146105d6575f5ffd5b8063b7b064a814610523578063ce0f92c21461052c578063da1f12ab1461053f575f5ffd5b80638da0a7f2116100ce5780638da0a7f2146104395780639005223614610472578063a377048114610485578063b5ab58dc14610498575f5ffd5b80635898852c1461040c5780636abb871f1461041557806383117afc14610430575f5ffd5b80631fd7555a1161015e578063362d02d711610139578063362d02d7146103a2578063421472dd146103ab5780634c10e26c146103c05780634c3be495146103d3575f5ffd5b80631fd7555a146102f15780632af3d7ed1461030457806331b1b97814610317575f5ffd5b8063136d88831161018e578063136d88831461021157806317599cc5146102365780631a6992b6146102de575f5ffd5b806301c2a6fe146101b4578063102c7f77146101dd57806310cf7d92146101fe575b5f5ffd5b6101c76101c2366004611ab4565b6105df565b6040516101d49190611acd565b60405180910390f35b6101f06101eb366004611b0f565b610648565b6040519081526020016101d4565b6101f061020c366004611b46565b610673565b6007546008546009545b604080519384526020840192909252908201526060016101d4565b610294610244366004611b7f565b6001602052805f5260405f205f91509050805f015490806001015490806002015490806003015490806004015490806005015490806006015490806007015490806008015490806009015490508a565b604080519a8b5260208b0199909952978901969096526060880194909452608087019290925260a086015260c085015260e0840152610100830152610120820152610140016101d4565b6101c76102ec366004611b7f565b6106cd565b6101c76102ff366004611b7f565b61077a565b6101c7610312366004611ab4565b610845565b610367610325366004611b7f565b5f602081905290815260409020805460018201546002830154600384015460048501546005860154600687015460079097015495969495939492939192909188565b604080519889526020890197909752958701949094526060860192909252608085015260a084015260c083015260e0820152610100016101d4565b6101f060075481565b6103be6103b9366004611bdb565b6108ac565b005b6103be6103ce366004611c76565b610b7f565b61021b6103e1366004611d01565b600560209081525f928352604080842090915290825290208054600182015460029092015490919083565b6101f0600c5481565b600b54600c54604080519283526020830191909152016101d4565b6101f060095481565b61021b610447366004611d01565b600660209081525f928352604080842090915290825290208054600182015460029092015490919083565b6103be610480366004611d2b565b610f3b565b6103be610493366004611b7f565b6111f9565b6104ab6104a6366004611b7f565b61129f565b6040516101d491905f61014082019050825182526020830151602083015260408301516040830152606083015160608301526080830151608083015260a083015160a083015260c083015160c083015260e083015160e083015261010083015161010083015261012083015161012083015292915050565b6101f0600b5481565b6101f061053a366004611b0f565b6113be565b6127116101f0565b61055a610555366004611b7f565b6113dc565b6040516101d491905f61010082019050825182526020830151602083015260408301516040830152606083015160608301526080830151608083015260a083015160a083015260c083015160c083015260e083015160e083015292915050565b6101f060085481565b6101f06105d1366004611dad565b6114d2565b6101f0600a5481565b6001600160a01b0381165f9081526002602090815260409182902080548351818402810184019094528084526060939283018282801561063c57602002820191905f5260205f20905b815481526020019060010190808311610628575b50505050509050919050565b6002602052815f5260405f208181548110610661575f80fd5b905f5260205f20015f91509150505481565b5f82156106a257505f8381526005602090815260408083206001600160a01b03851684529091529020546106c6565b505f8381526006602090815260408083206001600160a01b03851684529091529020545b9392505050565b6060600b54821061071f5760405162461bcd60e51b8152602060048201526017602482015276145d595cdd1a5bdb88191bd95cc81b9bdd08195e1a5cdd604a1b60448201526064015b60405180910390fd5b5f828152600460209081526040918290208054835181840281018401909452808452909183018282801561063c57602002820191905f5260205f20908154815260200190600101908083116106285750505050509050919050565b6060600b545f03610798575050604080515f81526020810190915290565b5f600b5483116107a857826107ac565b600b545b90505f8167ffffffffffffffff8111156107c8576107c8611dcd565b6040519080825280602002602001820160405280156107f1578160200160208202803683370190505b5090505f5b8281101561083d57806001600b5461080e9190611df5565b6108189190611df5565b82828151811061082a5761082a611e08565b60209081029190910101526001016107f6565b509392505050565b6001600160a01b0381165f9081526003602090815260409182902080548351818402810184019094528084526060939283018282801561063c57602002820191905f5260205f20908154815260200190600101908083116106285750505050509050919050565b5f6108ec8787878080601f0160208091040260200160405190810160405280939291908181526020018383808284375f920191909152506114eb92505050565b90505f61092e8585858080601f0160208091040260200160405190810160405280939291908181526020018383808284375f920191909152506114eb92505050565b90505f6109438361093e5f611501565b611513565b90508915610a2057600b548b106109965760405162461bcd60e51b8152602060048201526017602482015276145d595cdd1a5bdb88191bd95cc81b9bdd08195e1a5cdd604a1b6044820152606401610716565b5f8b815260056020908152604080832033845290915290206109b86001611541565b80825560018201839055600282018490556109d29061155c565b5080546109df903361156b565b506109ed816001015461155c565b506109fc81600101543361156b565b50610a0a816002015461155c565b50610a1981600201543361156b565b5050610b36565b600c548b10610a715760405162461bcd60e51b815260206004820152601560248201527f416e7377657220646f6573206e6f7420657869737400000000000000000000006044820152606401610716565b5f8b8152600660209081526040808320338452909152902080610a946001611541565b8082556001820184905560028201859055610aae9061155c565b508054610abb903361156b565b50610ac9816001015461155c565b50610ad881600101543361156b565b50610ae6816002015461155c565b50610af581600201543361156b565b505f8d81526001602052604090206005810154610b12908661157d565b60058201819055610b229061155c565b50610b3181600501543361156b565b505050505b604080518b151581524260208201528c917fee358b70feb31defabe34f41b973e45e9d6d5742b67e164e6d15ad5c5ae606e4910160405180910390a25050505050505050505050565b600b548710610bca5760405162461bcd60e51b8152602060048201526017602482015276145d595cdd1a5bdb88191bd95cc81b9bdd08195e1a5cdd604a1b6044820152606401610716565b5f610c0a8787878080601f0160208091040260200160405190810160405280939291908181526020018383808284375f920191909152506115ab92505050565b90505f610c4c8585858080601f0160208091040260200160405190810160405280939291908181526020018383808284375f920191909152506115b892505050565b600c549091505f610c5b6115c5565b90506040518061014001604052808581526020018481526020014281526020018c8152602001838152602001610c905f611501565b8152602001610c9e5f611501565b8152602001610cac5f611501565b8152602001610cbb6001611541565b815260209081018390525f84815260018083526040918290208451815592840151908301558201516002820155606082015160038201556080820151600482015560a0820151600582015560c0820151600682015560e08201516007820155610100820151600882015561012090910151600990910155610d3b8461155c565b50610d46843361156b565b50610d508361155c565b50610d5b833361156b565b505f82815260016020526040902060050154610d769061155c565b505f82815260016020526040902060050154610d92903361156b565b505f82815260016020526040902060060154610dad9061155c565b505f82815260016020526040902060060154610dc9903361156b565b505f82815260016020526040902060070154610de49061155c565b505f82815260016020526040902060070154610e00903361156b565b505f82815260016020526040902060080154610e1b9061155c565b505f82815260016020526040902060080154610e37903361156b565b505f82815260016020526040902060090154610e529061155c565b505f82815260016020526040902060090154610e6e903361156b565b50335f908152600360209081526040808320805460018181018355918552838520018690558e8452600480845282852080548084018255908652848620018790558f85529284905292200154610ecc91610ec790611501565b61157d565b5f8c815260208190526040812060040191909155600c805491610eee83611e1c565b9190505550818b7f8d9a195acdcc1bccfa9fb12f8ad389b49b0655739d4336499baf12f0f0acad8742604051610f2691815260200190565b60405180910390a35050505050505050505050565b5f610f7b8787878080601f0160208091040260200160405190810160405280939291908181526020018383808284375f920191909152506115ab92505050565b90505f610fbd8585858080601f0160208091040260200160405190810160405280939291908181526020018383808284375f920191909152506115b892505050565b600b549091505f610fcc6115c5565b9050604051806101000160405280858152602001848152602001428152602001610ff55f611501565b81526020016110035f611501565b81526020016110126001611541565b8152602080820185905260409182018490525f85815280825282902083518155908301516001820155908201516002820155606082015160038201556080820151600482015560a0820151600582015560c0820151600682015560e0909101516007909101556110818461155c565b5061108c843361156b565b506110968361155c565b506110a1833361156b565b505f828152602081905260409020600301546110bc9061155c565b505f828152602081905260409020600301546110d8903361156b565b505f828152602081905260409020600401546110f39061155c565b505f8281526020819052604090206004015461110f903361156b565b505f8281526020819052604090206005015461112a9061155c565b505f82815260208190526040902060050154611146903361156b565b505f828152602081905260409020600701546111619061155c565b505f8281526020819052604090206007015461117d903361156b565b50335f9081526002602090815260408220805460018101825590835290822001839055600b8054916111ae83611e1c565b9190505550817f2007fca1ce070a6f3b961e8a80acbda78772ceebc5ec79602f50fa81fea1cb74426040516111e591815260200190565b60405180910390a250505050505050505050565b600b5481106112445760405162461bcd60e51b8152602060048201526017602482015276145d595cdd1a5bdb88191bd95cc81b9bdd08195e1a5cdd604a1b6044820152606401610716565b5f8181526020819052604090206003015461126390610ec76001611501565b5f82815260208190526040902060030181905561127f9061155c565b505f8181526020819052604090206003015461129b903361156b565b5050565b6112eb6040518061014001604052805f81526020015f81526020015f81526020015f81526020015f81526020015f81526020015f81526020015f81526020015f81526020015f81525090565b600c54821061133c5760405162461bcd60e51b815260206004820152601560248201527f416e7377657220646f6573206e6f7420657869737400000000000000000000006044820152606401610716565b505f908152600160208181526040928390208351610140810185528154815292810154918301919091526002810154928201929092526003820154606082015260048201546080820152600582015460a0820152600682015460c0820152600782015460e0820152600882015461010082015260099091015461012082015290565b6003602052815f5260405f208181548110610661575f80fd5b905090565b61141c6040518061010001604052805f81526020015f81526020015f81526020015f81526020015f81526020015f81526020015f81526020015f81525090565b600b5482106114675760405162461bcd60e51b8152602060048201526017602482015276145d595cdd1a5bdb88191bd95cc81b9bdd08195e1a5cdd604a1b6044820152606401610716565b505f9081526020818152604091829020825161010081018452815481526001820154928101929092526002810154928201929092526003820154606082015260048201546080820152600582015460a0820152600682015460c082015260079091015460e082015290565b6004602052815f5260405f208181548110610661575f80fd5b5f6114f8838360046115d0565b90505b92915050565b5f6114fb8263ffffffff1660046116f0565b5f82611525576115225f611501565b92505b81611536576115335f611501565b91505b6114f883835f6117ad565b5f6114fb82611550575f611553565b60015b60ff165f6116f0565b5f61156782306118a8565b5090565b5f61157683836118a8565b5090919050565b5f8261158f5761158c5f611501565b92505b816115a05761159d5f611501565b91505b6114f883835f611931565b5f6114f8838360066115d0565b5f6114f8838360076115d0565b5f6113d760046119e6565b7f9e7b61f58c47dc699ac88507c4f5bb9f121c03808c5676a8078fe583e46497015460405163196d0b9b60e01b81525f917f9e7b61f58c47dc699ac88507c4f5bb9f121c03808c5676a8078fe583e4649700916001600160a01b039091169063196d0b9b90611649908890339089908990600401611e54565b6020604051808303815f875af1158015611665573d5f5f3e3d5ffd5b505050506040513d601f19601f820116820180604052508101906116899190611eae565b8154604051630f8e573b60e21b8152600481018390523360248201529193506001600160a01b031690633e395cec906044015f604051808303815f87803b1580156116d2575f5ffd5b505af11580156116e4573d5f5f3e3d5ffd5b50505050509392505050565b7f9e7b61f58c47dc699ac88507c4f5bb9f121c03808c5676a8078fe583e464970154604051639cd07acb60e01b81525f917f9e7b61f58c47dc699ac88507c4f5bb9f121c03808c5676a8078fe583e4649700916001600160a01b0390911690639cd07acb906117659087908790600401611ec5565b6020604051808303815f875af1158015611781573d5f5f3e3d5ffd5b505050506040513d601f19601f820116820180604052508101906117a59190611eae565b949350505050565b5f5f82156117c05750600160f81b6117c3565b505f5b7f9e7b61f58c47dc699ac88507c4f5bb9f121c03808c5676a8078fe583e4649701546040516336024b2f60e21b815260048101879052602481018690527fff00000000000000000000000000000000000000000000000000000000000000831660448201527f9e7b61f58c47dc699ac88507c4f5bb9f121c03808c5676a8078fe583e4649700916001600160a01b03169063d8092cbc906064015b6020604051808303815f875af115801561187a573d5f5f3e3d5ffd5b505050506040513d601f19601f8201168201806040525081019061189e9190611eae565b9695505050505050565b5f7f9e7b61f58c47dc699ac88507c4f5bb9f121c03808c5676a8078fe583e46497008054604051635ca4b5b160e11b8152600481018690526001600160a01b03858116602483015292935091169063b9496b62906044015f604051808303815f87803b158015611916575f5ffd5b505af1158015611928573d5f5f3e3d5ffd5b50505050505050565b5f5f82156119445750600160f81b611947565b505f5b7f9e7b61f58c47dc699ac88507c4f5bb9f121c03808c5676a8078fe583e46497015460405163022f65e760e31b815260048101879052602481018690527fff00000000000000000000000000000000000000000000000000000000000000831660448201527f9e7b61f58c47dc699ac88507c4f5bb9f121c03808c5676a8078fe583e4649700916001600160a01b03169063117b2f389060640161185e565b7f9e7b61f58c47dc699ac88507c4f5bb9f121c03808c5676a8078fe583e464970154604051636baeb74560e11b81525f917f9e7b61f58c47dc699ac88507c4f5bb9f121c03808c5676a8078fe583e4649700916001600160a01b039091169063d75d6e8a90611a59908690600401611ed9565b6020604051808303815f875af1158015611a75573d5f5f3e3d5ffd5b505050506040513d601f19601f820116820180604052508101906106c69190611eae565b80356001600160a01b0381168114611aaf575f5ffd5b919050565b5f60208284031215611ac4575f5ffd5b6114f882611a99565b602080825282518282018190525f918401906040840190835b81811015611b04578351835260209384019390920191600101611ae6565b509095945050505050565b5f5f60408385031215611b20575f5ffd5b611b2983611a99565b946020939093013593505050565b80358015158114611aaf575f5ffd5b5f5f5f60608486031215611b58575f5ffd5b83359250611b6860208501611b37565b9150611b7660408501611a99565b90509250925092565b5f60208284031215611b8f575f5ffd5b5035919050565b5f5f83601f840112611ba6575f5ffd5b50813567ffffffffffffffff811115611bbd575f5ffd5b602083019150836020828501011115611bd4575f5ffd5b9250929050565b5f5f5f5f5f5f5f5f60c0898b031215611bf2575f5ffd5b88359750611c0260208a01611b37565b965060408901359550606089013567ffffffffffffffff811115611c24575f5ffd5b611c308b828c01611b96565b9096509450506080890135925060a089013567ffffffffffffffff811115611c56575f5ffd5b611c628b828c01611b96565b999c989b5096995094979396929594505050565b5f5f5f5f5f5f5f60a0888a031215611c8c575f5ffd5b8735965060208801359550604088013567ffffffffffffffff811115611cb0575f5ffd5b611cbc8a828b01611b96565b90965094505060608801359250608088013567ffffffffffffffff811115611ce2575f5ffd5b611cee8a828b01611b96565b989b979a50959850939692959293505050565b5f5f60408385031215611d12575f5ffd5b82359150611d2260208401611a99565b90509250929050565b5f5f5f5f5f5f60808789031215611d40575f5ffd5b86359550602087013567ffffffffffffffff811115611d5d575f5ffd5b611d6989828a01611b96565b90965094505060408701359250606087013567ffffffffffffffff811115611d8f575f5ffd5b611d9b89828a01611b96565b979a9699509497509295939492505050565b5f5f60408385031215611dbe575f5ffd5b50508035926020909101359150565b634e487b7160e01b5f52604160045260245ffd5b634e487b7160e01b5f52601160045260245ffd5b818103818111156114fb576114fb611de1565b634e487b7160e01b5f52603260045260245ffd5b5f60018201611e2d57611e2d611de1565b5060010190565b60548110611e5057634e487b7160e01b5f52602160045260245ffd5b9052565b8481526001600160a01b0384166020820152608060408201525f8351806080840152806020860160a085015e5f60a0828501015260a0601f19601f830116840101915050611ea56060830184611e34565b95945050505050565b5f60208284031215611ebe575f5ffd5b5051919050565b828152604081016106c66020830184611e34565b602081016114fb8284611e3456fea164736f6c634300081b000a",
  "devdoc": {
    "author": "AnonScholar Team",
    "details": "Utilizes advanced FHE features including random numbers, conditional logic, and encrypted voting",
    "kind": "dev",
    "methods": {
      "castVote(uint256,bool,bytes32,bytes,bytes32,bytes)": {
        "params": {
          "encryptedVoteType": "Encrypted vote type (true=upvote, false=downvote)",
          "encryptedWeight": "Encrypted vote weight",
          "isQuestion": "Whether voting on a question (true) or answer (false)",
          "targetId": "The ID of the question or answer to vote on",
          "voteTypeProof": "Proof for encrypted vote type",
          "weightProof": "Proof for encrypted weight"
        }
      },
      "getAnswer(uint256)": {
        "params": {
          "answerId": "The answer ID"
        },
        "returns": {
          "_0": "Answer struct with encrypted fields"
        }
      },
      "getCounters()": {
        "returns": {
          "currentAnswerCounter": "Current answer counter",
          "currentQuestionCounter": "Current question counter"
        }
      },
      "getPlatformStats()": {
        "returns": {
          "totalAnswers": "Encrypted total answer count",
          "totalQuestions": "Encrypted total question count",
          "totalVotes": "Encrypted total vote count"
        }
      },
      "getQuestion(uint256)": {
        "params": {
          "questionId": "The question ID"
        },
        "returns": {
          "_0": "Question struct with encrypted fields"
        }
      },
      "getQuestionAnswers(uint256)": {
        "params": {
          "questionId": "The question ID"
        },
        "returns": {
          "_0": "Array of answer IDs"
        }
      },
      "getRecentQuestions(uint256)": {
        "params": {
          "count": "Number of recent questions to retrieve"
        },
        "returns": {
          "_0": "Array of recent question IDs"
        }
      },
      "getUserAnswers(address)": {
        "params": {
          "user": "The user address"
        },
        "returns": {
          "_0": "Array of answer IDs"
        }
      },
      "getUserQuestions(address)": {
        "params": {
          "user": "The user address"
        },
        "returns": {
          "_0": "Array of question IDs"
        }
      },
      "hasUserVoted(uint256,bool,address)": {
        "params": {
          "isQuestion": "Whether it's a question or answer",
          "targetId": "The content ID",
          "user": "The user address"
        },
        "returns": {
          "_0": "hasVoted Encrypted boolean indicating if user has voted"
        }
      },
      "incrementViewCount(uint256)": {
        "params": {
          "questionId": "The question ID to increment views for"
        }
      },
      "postAnswer(uint256,bytes32,bytes,bytes32,bytes)": {
        "params": {
          "answererProof": "Proof for encrypted answerer",
          "contentProof": "Proof for encrypted content",
          "encryptedAnswerer": "Encrypted answerer address",
          "encryptedContent": "Encrypted answer content",
          "questionId": "The target question ID"
        }
      },
      "postQuestion(bytes32,bytes,bytes32,bytes)": {
        "params": {
          "askerProof": "Proof for encrypted asker",
          "contentProof": "Proof for encrypted content",
          "encryptedAsker": "Encrypted asker address (for additional anonymity)",
          "encryptedContent": "Encrypted question content"
        }
      }
    },
    "title": "AnonScholar - Anonymous Q&A Platform",
    "version": 1
  },
  "userdoc": {
    "kind": "user",
    "methods": {
      "castVote(uint256,bool,bytes32,bytes,bytes32,bytes)": {
        "notice": "Cast an encrypted vote on a question or answer"
      },
      "getAnswer(uint256)": {
        "notice": "Get encrypted answer data"
      },
      "getCounters()": {
        "notice": "Get current counters"
      },
      "getPlatformStats()": {
        "notice": "Get platform statistics (encrypted)"
      },
      "getQuestion(uint256)": {
        "notice": "Get encrypted question data"
      },
      "getQuestionAnswers(uint256)": {
        "notice": "Get answer IDs for a specific question"
      },
      "getRecentQuestions(uint256)": {
        "notice": "Get recent question IDs for the feed"
      },
      "getUserAnswers(address)": {
        "notice": "Get user's answer IDs (only accessible by the user)"
      },
      "getUserQuestions(address)": {
        "notice": "Get user's question IDs (only accessible by the user)"
      },
      "hasUserVoted(uint256,bool,address)": {
        "notice": "Check if user has voted on content"
      },
      "incrementViewCount(uint256)": {
        "notice": "Increment view count for a question (encrypted)"
      },
      "postAnswer(uint256,bytes32,bytes,bytes32,bytes)": {
        "notice": "Post an encrypted answer to a question"
      },
      "postQuestion(bytes32,bytes,bytes32,bytes)": {
        "notice": "Post a new encrypted question"
      }
    },
    "notice": "A privacy-preserving Q&A platform using FHEVM for anonymous interactions",
    "version": 1
  },
  "storageLayout": {
    "storage": [
      {
        "astId": 39111,
        "contract": "contracts/AnonScholar.sol:AnonScholar",
        "label": "questions",
        "offset": 0,
        "slot": "0",
        "type": "t_mapping(t_uint256,t_struct(Question)39066_storage)"
      },
      {
        "astId": 39116,
        "contract": "contracts/AnonScholar.sol:AnonScholar",
        "label": "answers",
        "offset": 0,
        "slot": "1",
        "type": "t_mapping(t_uint256,t_struct(Answer)39095_storage)"
      },
      {
        "astId": 39121,
        "contract": "contracts/AnonScholar.sol:AnonScholar",
        "label": "userQuestionIds",
        "offset": 0,
        "slot": "2",
        "type": "t_mapping(t_address,t_array(t_uint256)dyn_storage)"
      },
      {
        "astId": 39126,
        "contract": "contracts/AnonScholar.sol:AnonScholar",
        "label": "userAnswerIds",
        "offset": 0,
        "slot": "3",
        "type": "t_mapping(t_address,t_array(t_uint256)dyn_storage)"
      },
      {
        "astId": 39131,
        "contract": "contracts/AnonScholar.sol:AnonScholar",
        "label": "questionAnswerIds",
        "offset": 0,
        "slot": "4",
        "type": "t_mapping(t_uint256,t_array(t_uint256)dyn_storage)"
      },
      {
        "astId": 39138,
        "contract": "contracts/AnonScholar.sol:AnonScholar",
        "label": "questionVotes",
        "offset": 0,
        "slot": "5",
        "type": "t_mapping(t_uint256,t_mapping(t_address,t_struct(UserVote)39106_storage))"
      },
      {
        "astId": 39145,
        "contract": "contracts/AnonScholar.sol:AnonScholar",
        "label": "answerVotes",
        "offset": 0,
        "slot": "6",
        "type": "t_mapping(t_uint256,t_mapping(t_address,t_struct(UserVote)39106_storage))"
      },
      {
        "astId": 39148,
        "contract": "contracts/AnonScholar.sol:AnonScholar",
        "label": "encryptedTotalQuestions",
        "offset": 0,
        "slot": "7",
        "type": "t_userDefinedValueType(euint32)40204"
      },
      {
        "astId": 39151,
        "contract": "contracts/AnonScholar.sol:AnonScholar",
        "label": "encryptedTotalAnswers",
        "offset": 0,
        "slot": "8",
        "type": "t_userDefinedValueType(euint32)40204"
      },
      {
        "astId": 39154,
        "contract": "contracts/AnonScholar.sol:AnonScholar",
        "label": "encryptedTotalVotes",
        "offset": 0,
        "slot": "9",
        "type": "t_userDefinedValueType(euint32)40204"
      },
      {
        "astId": 39157,
        "contract": "contracts/AnonScholar.sol:AnonScholar",
        "label": "encryptedActiveUsers",
        "offset": 0,
        "slot": "10",
        "type": "t_userDefinedValueType(euint32)40204"
      },
      {
        "astId": 39159,
        "contract": "contracts/AnonScholar.sol:AnonScholar",
        "label": "questionCounter",
        "offset": 0,
        "slot": "11",
        "type": "t_uint256"
      },
      {
        "astId": 39161,
        "contract": "contracts/AnonScholar.sol:AnonScholar",
        "label": "answerCounter",
        "offset": 0,
        "slot": "12",
        "type": "t_uint256"
      }
    ],
    "types": {
      "t_address": {
        "encoding": "inplace",
        "label": "address",
        "numberOfBytes": "20"
      },
      "t_array(t_uint256)dyn_storage": {
        "base": "t_uint256",
        "encoding": "dynamic_array",
        "label": "uint256[]",
        "numberOfBytes": "32"
      },
      "t_mapping(t_address,t_array(t_uint256)dyn_storage)": {
        "encoding": "mapping",
        "key": "t_address",
        "label": "mapping(address => uint256[])",
        "numberOfBytes": "32",
        "value": "t_array(t_uint256)dyn_storage"
      },
      "t_mapping(t_address,t_struct(UserVote)39106_storage)": {
        "encoding": "mapping",
        "key": "t_address",
        "label": "mapping(address => struct AnonScholar.UserVote)",
        "numberOfBytes": "32",
        "value": "t_struct(UserVote)39106_storage"
      },
      "t_mapping(t_uint256,t_array(t_uint256)dyn_storage)": {
        "encoding": "mapping",
        "key": "t_uint256",
        "label": "mapping(uint256 => uint256[])",
        "numberOfBytes": "32",
        "value": "t_array(t_uint256)dyn_storage"
      },
      "t_mapping(t_uint256,t_mapping(t_address,t_struct(UserVote)39106_storage))": {
        "encoding": "mapping",
        "key": "t_uint256",
        "label": "mapping(uint256 => mapping(address => struct AnonScholar.UserVote))",
        "numberOfBytes": "32",
        "value": "t_mapping(t_address,t_struct(UserVote)39106_storage)"
      },
      "t_mapping(t_uint256,t_struct(Answer)39095_storage)": {
        "encoding": "mapping",
        "key": "t_uint256",
        "label": "mapping(uint256 => struct AnonScholar.Answer)",
        "numberOfBytes": "32",
        "value": "t_struct(Answer)39095_storage"
      },
      "t_mapping(t_uint256,t_struct(Question)39066_storage)": {
        "encoding": "mapping",
        "key": "t_uint256",
        "label": "mapping(uint256 => struct AnonScholar.Question)",
        "numberOfBytes": "32",
        "value": "t_struct(Question)39066_storage"
      },
      "t_struct(Answer)39095_storage": {
        "encoding": "inplace",
        "label": "struct AnonScholar.Answer",
        "members": [
          {
            "astId": 39070,
            "contract": "contracts/AnonScholar.sol:AnonScholar",
            "label": "encryptedContent",
            "offset": 0,
            "slot": "0",
            "type": "t_userDefinedValueType(euint128)40228"
          },
          {
            "astId": 39073,
            "contract": "contracts/AnonScholar.sol:AnonScholar",
            "label": "encryptedAnswerer",
            "offset": 0,
            "slot": "1",
            "type": "t_userDefinedValueType(eaddress)40326"
          },
          {
            "astId": 39075,
            "contract": "contracts/AnonScholar.sol:AnonScholar",
            "label": "timestamp",
            "offset": 0,
            "slot": "2",
            "type": "t_uint256"
          },
          {
            "astId": 39077,
            "contract": "contracts/AnonScholar.sol:AnonScholar",
            "label": "questionId",
            "offset": 0,
            "slot": "3",
            "type": "t_uint256"
          },
          {
            "astId": 39079,
            "contract": "contracts/AnonScholar.sol:AnonScholar",
            "label": "answerId",
            "offset": 0,
            "slot": "4",
            "type": "t_uint256"
          },
          {
            "astId": 39082,
            "contract": "contracts/AnonScholar.sol:AnonScholar",
            "label": "encryptedUpvotes",
            "offset": 0,
            "slot": "5",
            "type": "t_userDefinedValueType(euint32)40204"
          },
          {
            "astId": 39085,
            "contract": "contracts/AnonScholar.sol:AnonScholar",
            "label": "encryptedDownvotes",
            "offset": 0,
            "slot": "6",
            "type": "t_userDefinedValueType(euint32)40204"
          },
          {
            "astId": 39088,
            "contract": "contracts/AnonScholar.sol:AnonScholar",
            "label": "encryptedScore",
            "offset": 0,
            "slot": "7",
            "type": "t_userDefinedValueType(euint32)40204"
          },
          {
            "astId": 39091,
            "contract": "contracts/AnonScholar.sol:AnonScholar",
            "label": "isVisible",
            "offset": 0,
            "slot": "8",
            "type": "t_userDefinedValueType(ebool)40196"
          },
          {
            "astId": 39094,
            "contract": "contracts/AnonScholar.sol:AnonScholar",
            "label": "encryptedRandomRank",
            "offset": 0,
            "slot": "9",
            "type": "t_userDefinedValueType(euint32)40204"
          }
        ],
        "numberOfBytes": "320"
      },
      "t_struct(Question)39066_storage": {
        "encoding": "inplace",
        "label": "struct AnonScholar.Question",
        "members": [
          {
            "astId": 39046,
            "contract": "contracts/AnonScholar.sol:AnonScholar",
            "label": "encryptedContent",
            "offset": 0,
            "slot": "0",
            "type": "t_userDefinedValueType(euint128)40228"
          },
          {
            "astId": 39049,
            "contract": "contracts/AnonScholar.sol:AnonScholar",
            "label": "encryptedAsker",
            "offset": 0,
            "slot": "1",
            "type": "t_userDefinedValueType(eaddress)40326"
          },
          {
            "astId": 39051,
            "contract": "contracts/AnonScholar.sol:AnonScholar",
            "label": "timestamp",
            "offset": 0,
            "slot": "2",
            "type": "t_uint256"
          },
          {
            "astId": 39054,
            "contract": "contracts/AnonScholar.sol:AnonScholar",
            "label": "encryptedViewCount",
            "offset": 0,
            "slot": "3",
            "type": "t_userDefinedValueType(euint32)40204"
          },
          {
            "astId": 39057,
            "contract": "contracts/AnonScholar.sol:AnonScholar",
            "label": "encryptedAnswerCount",
            "offset": 0,
            "slot": "4",
            "type": "t_userDefinedValueType(euint32)40204"
          },
          {
            "astId": 39060,
            "contract": "contracts/AnonScholar.sol:AnonScholar",
            "label": "isActive",
            "offset": 0,
            "slot": "5",
            "type": "t_userDefinedValueType(ebool)40196"
          },
          {
            "astId": 39062,
            "contract": "contracts/AnonScholar.sol:AnonScholar",
            "label": "questionId",
            "offset": 0,
            "slot": "6",
            "type": "t_uint256"
          },
          {
            "astId": 39065,
            "contract": "contracts/AnonScholar.sol:AnonScholar",
            "label": "encryptedRandomSeed",
            "offset": 0,
            "slot": "7",
            "type": "t_userDefinedValueType(euint32)40204"
          }
        ],
        "numberOfBytes": "256"
      },
      "t_struct(UserVote)39106_storage": {
        "encoding": "inplace",
        "label": "struct AnonScholar.UserVote",
        "members": [
          {
            "astId": 39099,
            "contract": "contracts/AnonScholar.sol:AnonScholar",
            "label": "hasVoted",
            "offset": 0,
            "slot": "0",
            "type": "t_userDefinedValueType(ebool)40196"
          },
          {
            "astId": 39102,
            "contract": "contracts/AnonScholar.sol:AnonScholar",
            "label": "voteType",
            "offset": 0,
            "slot": "1",
            "type": "t_userDefinedValueType(ebool)40196"
          },
          {
            "astId": 39105,
            "contract": "contracts/AnonScholar.sol:AnonScholar",
            "label": "encryptedVoteWeight",
            "offset": 0,
            "slot": "2",
            "type": "t_userDefinedValueType(euint32)40204"
          }
        ],
        "numberOfBytes": "96"
      },
      "t_uint256": {
        "encoding": "inplace",
        "label": "uint256",
        "numberOfBytes": "32"
      },
      "t_userDefinedValueType(eaddress)40326": {
        "encoding": "inplace",
        "label": "eaddress",
        "numberOfBytes": "32"
      },
      "t_userDefinedValueType(ebool)40196": {
        "encoding": "inplace",
        "label": "ebool",
        "numberOfBytes": "32"
      },
      "t_userDefinedValueType(euint128)40228": {
        "encoding": "inplace",
        "label": "euint128",
        "numberOfBytes": "32"
      },
      "t_userDefinedValueType(euint32)40204": {
        "encoding": "inplace",
        "label": "euint32",
        "numberOfBytes": "32"
      }
    }
  }
}